:020000040800F2
:1000000018040020010100086F020008F101000837
:100010006D02000849010008E50600080000000024
:10002000000000000000000000000000990300082C
:100030004B01000800000000E9020008F904000874
:100040001B0100081B0100081B0100081B01000820
:100050001B0100081B0100081B0100081B01000810
:100060001B0100081B0100081B0100081B01000800
:100070001B0100081B0100081B0100081B010008F0
:100080001B0100081B0100081B0100081B010008E0
:100090001B0100081B0100081B0100081B010008D0
:1000A0001B0100081B0100081B0100081B010008C0
:1000B0001B0100081B0100081B0100081B010008B0
:1000C0001B0100081B0100081B0100081B010008A0
:1000D0001B0100084D0500081B0100081B0100085A
:1000E0001B0100081B0100081B010008DFF80CD0F1
:1000F00000F018F800480047050700081804002021
:100100000648804706480047FEE7FEE7FEE7FEE7B1
:10011000FEE7FEE7FEE7FEE7FEE7FEE7FD04000878
:10012000ED000008064C074D06E0E06840F00103D2
:1001300094E8070098471034AC42F6D3FFF7DAFF93
:100140001807000838070008FEE77047F0B5CC78BC
:10015000002204F00F03E40601D58C7823430C78C9
:100160004FF00F0C14F0FF0F4FF0010E1BD005687D
:100170000E880EFA02F42640A64210D196000CFA20
:1001800006F725EA070703FA06F5CE783D43282E41
:1001900002D0482E02D002E0446100E00461521C0B
:1001A000082AE5D305600A88FF2A1CD94468002282
:1001B00002F108060EFA06F50E882E40AE420ED168
:1001C00096000CFA06F7BC4303FA06F7CE783C43D8
:1001D000282E00D14561CE78482E00D10561521CF1
:1001E000082AE5D34460F0BD416170470161704762
:1001F000FEE7000008B50121082000F077F848204C
:100200008DF803000220ADF8000003208DF80200F5
:1002100069460248FFF79AFF08BD0000000C014044
:1002200004210148FFF7E2BF000801400421014812
:10023000FFF7DABF0008014038B50121042000F0C3
:1002400055F810208DF803000420ADF800000320BD
:10025000054C8DF8020069462046FFF777FF042120
:100260002046FFF7C3FF38BD00080140FEE7704796
:1002700030B50F23C27801780125F2B1144A126813
:1002800001F1E02102F4E062C2F5E062120AC2F17B
:100290000404D3404278A24084781C4014432201D5
:1002A00081F80024007800F01F018D404009800093
:1002B00000F1E020C0F8005130BD01F01F00854082
:1002C0004809800000F1E020C0F8805130BD0000F6
:1002D0000CED00E002490843024908607047000045
:1002E0000000FA050CED00E070470000044A002908
:1002F000916901D0014300E08143916170470000A2
:100300000010024030B5204A5168204B11F00C011A
:1003100003D0042901D0082901D0036012E05168FC
:10032000536801F470114FF0020413F4803F04EBA2
:10033000914102D053689B0301D5154B00E0134B4C
:100340005943016051680F2303EA1111114B5C5CA2
:100350000168E14041605468072505EA14241C5DEA
:1003600021FA04F48460546805EAD4241B5DD94062
:10037000C1605268032303EA9232064B1B1F9A5C4A
:10038000B1FBF2F1016130BD0010024000127A00B1
:1003900000093D00040000207047000030B5012135
:1003A00087B08803FFF7A2FF01210420FFF79EFF1B
:1003B00018208DF813004FF40070ADF81000224D96
:1003C00003248DF8124004A92846FFF7BFFE04213C
:1003D0008DF813100802ADF810008DF8124004A932
:1003E0002846FFF7B3FE4FF41650009000200C2172
:1003F000ADF80A10ADF80600ADF80C00ADF8080035
:10040000ADF804004FF4A060FFF764FF25208DF8DD
:10041000140001208DF817008DF815008DF81600D6
:1004200005A8FFF725FF094C012240F2255120467F
:1004300000F0E5F86946204600F0FAF80121204670
:1004400000F0B4F807B030BD0008014000380140AA
:100450000CB50022264800920192016841F48031D7
:1004600001604FF4A063016801F40031019100992B
:10047000491C0091019911B900999942F3D1016881
:10048000890333D5012101911A490A6842F010020B
:100490000A600A6822F003020A600A6842F0020257
:1004A0000A604168416041684160416841F480618F
:1004B0004160416821F47C114160416841F4E811D8
:1004C0004160016841F08071016001688901FCD5DB
:1004D000416821F003014160416841F0020141603F
:1004E0004168C1F381010229FAD10CBD01920CBD12
:1004F0000010024000200240704700000F4810B575
:10050000016841F00101016041680D4A11404160FC
:1005100001680C4A11400160016821F480210160EA
:10052000416821F4FE0141604FF41F018160FFF733
:100530008FFF05494FF00060086010BD00100240B9
:100540000000FFF8FFFFF6FE08ED00E070B5114D6A
:1005500040F225563146284600F032F8012817D1DE
:10056000284600F0BBF80C4CC2B2412A227001D1DF
:10057000FFF75CFE2078422801D1FFF751FE0749C2
:100580000120087031462846BDE8704000F008B8E8
:1005900070BD00000038014014000020150000204C
:1005A0000A0A01219140C9430180704700298189CD
:1005B00002D041F4005101E021F4005181817047E3
:1005C00070B501F01F0501260024C1F3421306FA9D
:1005D00005F2012B0FD0022B0FD0838A4FEA112195
:1005E0000088134206FA01F600EA060001D000B1C5
:1005F0000124204670BD8389F0E7038AEEE710B539
:10060000C1F3421301F01F040121A140012B07D0C7
:10061000022B07D01430002A026805D00A4304E0F8
:100620000C30F8E71030F6E78A43026010BD000096
:1006300030B50446008A85B00D464CF6FF7108407F
:10064000E98801432182A0894EF6F3110840A98868
:100650002A8911436A8902431143A181A08A4FF676
:10066000FF410840A9890143A1826846FFF74AFE7D
:100670001948844201D1039800E00298A189090435
:1006800000EBC00101EB0010296801D5490000E032
:100690008900B0FBF1F06422B0FBF2F109010B0913
:1006A0006FF018056B4300EB8300A3891D044FF026
:1006B000320306D503EBC000B0FBF2F000F00700F8
:1006C00005E003EB0010B0FBF2F000F00F00084370
:1006D000208105B030BD0000003801408088C0F3A3
:1006E00008007047FEE702E008C8121F08C1002A90
:1006F000FAD170477047002001E001C1121F002AA3
:10070000FBD1704710B5FFF797FDFFF773FDFFF7BB
:1007100045FE002010BD0000380700080000002042
:1007200018000000E6060008500700081800002026
:1007300000040000F606000802040608000000009D
:100740000102030401020304060708090000000077
:04000005080000ED02
:00000001FF
